:020000022000DC
:1060000000000120756302005D6302005F6302000F
:106010006163020063630200656302000000000028
:1060200000000000000000000000000067630200A4
:1060300069630200000000006B6302006D630200F0
:10604000957F02006F630200B58102006F6302005A
:106050006F6302006F63020031800200D981020089
:106060006F6302006F6302006F6302006F630200E0
:106070006F6302006F6302006F6302006F630200D0
:106080006F6302000D7302006F6302006F63020012
:106090006F6302006F63020069A502006F63020074
:1060A0006F6302006F6302006F6302006F630200A0
:1060B0006F6302006F630200000000000000000038
:1060C0006F6302006F6302006F6302006F63020080
:1060D0006F6302006F6302006F6302000000000044
:1060E00000000000000000000000000000000000B0
:1060F00000000000000000000000000000000000A0
:10610000000000000000000000000000000000008F
:10611000000000000000000000000000000000007F
:10612000000000000000000000000000000000006F
:10613000000000000000000000000000000000005F
:10614000000000000000000000000000000000004F
:10615000000000000000000000000000000000003F
:10616000000000000000000000000000000000002F
:10617000000000000000000000000000000000001F
:10618000000000000000000000000000000000000F
:1061900000000000000000000000000000000000FF
:1061A00000000000000000000000000000000000EF
:1061B00000000000000000000000000000000000DF
:1061C00000000000000000000000000000000000CF
:1061D00000000000000000000000000000000000BF
:1061E00000000000000000000000000000000000AF
:1061F000000000000000000000000000000000009F
:10620000354936480A1A02D0072291438D4634494F
:1062100034480A1A06D00722914381F309880222E2
:1062200082F3148830483149314A00F044F831484B
:106230003149324A00F03FF831483249324A00F0E1
:106240003AF832483249334A00F035F83248334997
:10625000334A00F030F833483349344A00F02BF821
:1062600033483449344A00F026F83448344900228F
:1062700000F02CF833483449002200F027F8334866
:106280003349091A082902DB002202604160314AC1
:1062900090471F481F49884205D00268043003B464
:1062A000904703BCF7E700208646EC46002000211B
:1062B000294A9047FEE7884207D0521A05D0037852
:1062C00001300B700131013AF9D17047884202D098
:1062D00002700130FAE770470000012000E0002062
:1062E0000000012000000120A8D20200D82A0020CE
:1062F000282B0020D0630200D0630200B0C102004E
:10630000A8D20200D82A0020D82A0020CCC202003D
:10631000CCC20200CCC20200CCC20200CCC202003D
:10632000CCC20200CCC20200CCC20200A8D2020041
:10633000F8D20200282B0020282B0020282B002038
:106340006C3A00206C3A0020703A0020703A00202D
:10635000705A00209D630200398B0200FEE7FEE7C1
:10636000FEE7FEE7FEE7FEE7FEE7FEE7FEE7FEE705
:1063700000F002B8FFF7FCBF0F484FF00701884359
:1063800085460E4880470E48016841F4700101605F
:10639000BFF34F8FBFF36F8FFFF732BF09480A4932
:1063A0000A4A884207D0521A05D0037801300B7090
:1063B0000131013AF9D1704700000120CD7B020084
:1063C00088ED00E0CCC20200D82A0020D82A0020A4
:1063D00000487047643A00207047000007B5044B3E
:1063E0000093044A402300F030F803B05DF804FB4A
:1063F000F9630200292B00202DE9F8438846144652
:10640000B2B10F4B0F4E0325002743F0010922467E
:1064100008EB0701002002F035FC0744241A48B9B4
:1064200033782BB14FF47A40C847013D02D1357023
:10643000BDE8F88301233370002CE8D1F8E700BFF2
:10644000D0C20200282B00207047F0B595B01D4641
:10645000164608460C4601F0F3FA1A9B0D93CDE957
:10646000086500252B46082205A920460A958DF8C7
:106470002C500C9501F001FB079B0293069B0393A4
:106480009DF814308DF8115003F00302012A1DD13C
:10649000BDF81420059DC3F3C203C2F383168DF823
:1064A0001030B20008230EA9204601F0E6FAC5F329
:1064B000952508AB0093324602AB0EA9284600F0A2
:1064C00005FB204601F0C0FA15B0F0BD022AF8D154
:1064D000BDF81650C3F3C203C5F389158DF810300B
:1064E0000827082D2E4628BF08263B4632460EA90F
:1064F000204601F0C2FAAD1B08AB02AA31460EA835
:10650000374400F047FB002DEBD1DAE7037813F0B6
:10651000040216D003F00303012B03D0022B09D091
:10652000012070470A6800880232C0F383100244D9
:106530000A60F5E70B684288023303EB92130B60A5
:10654000EEE71046704700002DE9F04F87B00023BA
:106550000446861C0DF107000F4615468DF80730DE
:1065600000F064FD454801683960D0E90132134408
:1065700001335B1A824600F21C4700F5836900F282
:106580001448B3421CD30020002D73D004F00F0335
:106590009B0143F0050363F30F00DAF80020DAF8FB
:1065A00008301340033316444AF823009DF80700CF
:1065B000CAF8006000F05EFD012007B0BDE8F08F72
:1065C0000121384600F07FFF484600F094FF404626
:1065D00000F091FFDAF80400DAF808B0029000EA5F
:1065E0000B0003300AEB800002A9FFF78FFF029B2C
:1065F00050BB0BEA03020AEB820203F1020CD268E1
:106600000392013303EA0B0B0AEB8B0B02F003023C
:10661000012ADBF80C10CDF808C023D0022A16D0CE
:106620008346404600F06AFF10B1029BCAF804306E
:106630005946384600F047FFDAE901231344DAF8F7
:10664000002001339B1A9CE70BEA0300C9E7BDF861
:106650000E30C3F3891303334FEA114B0CEB930352
:106660000293DEE7BDF80C30C3F383134FEA114BFE
:106670006344F5E7A40544F006008EE73C2C0020B7
:1066800030B50A4C71B10A4A0A49121BD2080023DC
:106690009A4201D1002030BD31F82350854202D00A
:1066A0000133F5E7034654F83300F4E72CC2020047
:1066B000BCC20200D82A0020094B013903EBC000FC
:1066C000032909D8DFE801F00A0204060420704714
:1066D000007970474079704700207047022070476A
:1066E0002CC20200034BD3E90030C31A5842584170
:1066F000704700BF3C2C00202DE9F04387B0FFF726
:10670000F1FF0646002840F0F9807D4DC5F81804D9
:10671000BFF34F8F6B68AC6802932340033305EBE4
:10672000830002A9FFF7F2FE029B18B1D5F81824E6
:10673000002A5FD004EA0302991C013305EB8202B0
:10674000234005EB8303D268DB68049302F0030364
:10675000022B0392029160D1BDF80E306948C3F359
:106760008917502FB84628BF4FF0500868F38F1391
:1067700008F10801ADF80E3001F033F906460028A3
:1067800000F0A78001F05CF90023082203A930463D
:1067900001F069F9029924EA01020132B8EB820F93
:1067A0004FEA820332D95FFA88F85BB32140DCB24A
:1067B000A8EB040803315FFA88F9A046524C05EBB8
:1067C000810108234246304601F04DF934B108F109
:1067D00008034A462146304601F045F9029B03373B
:1067E00003EB97070297D5F81834002B49D1D5F859
:1067F000104459E02A689A428FD86A60304607B040
:10680000BDE8F08340491C469946DAE70C40E11C9C
:106810000823424605EB8101DDE7012B59D1BDF884
:106820000C303848C3F38311062928BF062161F3D1
:10683000891302318900ADF80C3001F0D2F8064618
:10684000002846D001F0FCF80023082203A93046B6
:1068500001F009F90027BDF80C20C2F38312BB0038
:10686000974203F10803BED202994A1C214003312A
:10687000029205EB81010422304601F0F4F8013761
:10688000E9E7304601F0E0F8FFF72CFF80F0010067
:10689000C6B2B3E7E3685B7923B1236831461B686E
:1068A00020469847E3681C68002CF3D1304601F07D
:1068B000CBF80DF107008DF8074000F0B7FBD5F8D5
:1068C00018340BB9029B6B609DF8070000F0D2FBF7
:1068D000DAE7D5F8104454B90C4B0D480D49C01AED
:1068E000C008000440F0020000F062F8CCE7236822
:1068F00020469B689847E3681C68ECE700267DE724
:106900003C2C002018C20200482C00202CC202009F
:106910005CC20200F4C202002DE9F74F224D04468A
:106920000F46924601A901221846D5F808909B46C9
:10693000FFF70AFE20B3019E4FF00008B21CD845B5
:1069400008EB020126D11948002100F08DFD80F3EB
:106950001000000440EA1440E400731C04F0380402
:1069600003EA090306EA090644F0010405EB830380
:10697000033644EA881444EA8724D86045F8264060
:1069800095F820341BB1FFF7B7FE0028FBD103B008
:10699000BDE8F08F09EA010105EB81015AF82830C2
:1069A000CB6008F10108CAE73C2C002058300020D9
:1069B00000231A46FFF7B0BF07B50123019201AAD1
:1069C000FFF7AAFF03B05DF804FB07B5CDE900238C
:1069D00002236A46FFF7A0FF03B05DF804FB000046
:1069E000094A38B50123D2F8104482F820341D46F4
:1069F00004B938BDE3685D71236820465B68984739
:106A0000E3681C68F4E700BF3C2C002007B5034690
:106A10000846197A052911D05B7A2BB1094A0A492F
:106A2000019000F0B7FD01980849019000F0B2FD17
:106A3000019803B05DF804EB00F0A1BD002AF8D086
:106A4000F2E700BF09C302000EC302002EC302001A
:106A500030B5C38885B004460D4633B1144A009260
:106A60001449154A284600F095FD217A05291DD0C4
:106A7000637A4BB1A088FFF71FFE104B104953F803
:106A80002020284600F086FD227A0E4BA08853F87D
:106A9000222003920021FFF7F3FD039A0A490346DF
:106AA000284605B0BDE8304000F074BD05B030BDEB
:106AB00009C3020019C3020011C3020098C30200F7
:106AC0000EC30200BCC3020031C302002DE9F04333
:106AD00085B01F460C9D002395F80C902B7306463D
:106AE0000C46904629463846FFF7B2FFB8F1060F2C
:106AF00009D8DFE808F00412181F28334000314697
:106B0000284600F047FD002229463846FFF77EFF61
:106B100085F80C9005B0BDE8F08322683146284620
:106B200000F038FDEFE7D4E900233146284600F0B5
:106B300031FDE8E7A36800933146D4E900232846F5
:106B400000F028FDDFE7E3680193A3680093314676
:106B5000D4E90023284600F01DFDD4E72369029301
:106B6000E3680193A36800933146D4E900232846E3
:106B700000F010FDC7E76369039323690293E3689C
:106B80000193A36800933146D4E90023284600F01E
:106B900001FDB8E708292DE9F74F80460E46174654
:106BA0001C463CD8002593F80C901D7319461046DE
:106BB000FFF74EFFDFF888A0DFF888B0AE4231D98A
:106BC00018F805205946204600F0E4FC0135082D50
:106BD000F4D11949194DDFF870A0204600F0DAFC15
:106BE0004FF0000B5E4522D918F80B207E2A05D8FD
:106BF0001046019204F08AFA019A00B92E225146F9
:106C0000204600F0C7FC0BF1010BBBF1080FE9D1E6
:106C1000012221463846FFF7F9FE84F80C9003B0B4
:106C2000BDE8F08F5146204600F0B4FCCEE729467F
:106C3000204600F0AFFCE6E745C3020043C3020074
:106C400041C302003BC3020047C302001FB500213D
:106C5000039001AA44F20100CDE9011100F004F80B
:106C600005B05DF804FB000010B572B6FFF7B8FE82
:106C7000FFF742FD0028FBD1104B114C1149E41ADB
:106C8000E408240444F00100FFF792FE0E4B1B6859
:106C9000DB0700D500BE0D4944F00200FFF788FE77
:106CA000BFF34F8F0A490B4BCA6802F4E0621343EB
:106CB000CB60BFF34F8F00BFFDE700BF2CC20200C7
:106CC0005CC20200DBC30200F0ED00E0E7C302009B
:106CD00000ED00E00400FA05D0E90223D1E9020149
:106CE000994208BF90422CBF01200020704700004D
:106CF00008B50B4800F0F5FA0A4B0B49D3E900231D
:106D00001218D1E9000143F100038B4208BF82420F
:106D100003D212F1807243F100031046194608BDF8
:106D2000E02A002068300020E030002037B505461A
:106D30000C460A4801A900F006FB60B105704460EA
:106D400001A9064800F029FB18B1054800F0CEFA69
:106D5000002003B030BD0420FBE700BFCC30002092
:106D6000E02A002038B5184B1B78044613B90025DB
:106D7000284638BD0028FAD0037F03F0FF05002B1A
:106D8000F5D0FFF7B5FFD4E90223994208BF90423E
:106D900014D3236903B92377D4E9053098472169CF
:106DA0000029E4D0237F03F0FF05002BDFD0D4E9D6
:106DB0000223521843F10003C4E902230348214689
:106DC00000F07BFED4E700BF7030002004C4020056
:106DD00013B5114B11491868019008231048582227
:106DE00000F09EFA044698B90E4A0F4801A900F037
:106DF00065F9044660B90C48012100F055FA0123F9
:106E00000A4A0948194600F0B7F9094B01221A70DD
:106E1000204602B010BD00BFFEC302007430002047
:106E2000CC300020956E0200E02A0020FFFF7F009A
:106E3000703000203AB103685A614A1E51425141F4
:106E40001961002070470720704738B5037F04465A
:106E50000D4683B98261FFF74BFF2369401941F169
:106E60000001C4E9020103B1256121460020BDE80B
:106E70003840FFF75BBF002038BD00230146037791
:106E80000120FFF753BF0000014800F02ABA00BFFD
:106E9000E02A00202DE9F04F85B0804600F00CFA82
:106EA00040B15A4AD2E9003113F1807341F1000137
:106EB000C2E900310021404600F00DFA38B1544ECD
:106EC000336823B13068FFF74DFF002333600121A1
:106ED000404600F000FA20B1FFF70AFF4D4BC3E92E
:106EE00000014D484A4F4D4EDFF8389103A900F09C
:106EF00064FA002845D1DFF82491454EDFF828A137
:106F0000484600F0F0FD3368002875D07BB1336847
:106F1000D0E90201D3E90223994208BF90422DD261
:106F200033681B7F1BB13168484600F0C6FD4846F8
:106F300000F0D3FDD0E902B307460193FFF7D8FE76
:106F4000019BBBEB000463EB0105012C75F1000311
:106F500045DBB4F5350F40D3FFF796FF304A0244C6
:106F60004FF496030021504600F026F900283ED148
:106F7000336813B9404600F0F7F8376005B0BDE854
:106F8000F08F0378012B1DD0022B09D14FF0000A9E
:106F9000304600F0A2FD002834D080F81CA0F7E7AE
:106FA0003BB941680B7F23B901230B77304600F0D2
:106FB00084FD03A9184800F02BFA03A9164800F035
:106FC000FCF996E741683B68994202D100233B6097
:106FD000EFE7304600F08AFDEBE7BA68C0E7002132
:106FE000504600F06EF93846FFF7BCFE01E00D2870
:106FF000F9D00023336083E7002BBFD1404600F077
:10700000B7F8BBE7012389F80030D2E768300020E9
:10701000E8300020E0300020CC30002004C4020022
:10702000FFFFB40070300020E02A002070B5EFF3BD
:10703000108672B60C4A946801239CB993600B4B7E
:107040000B4DD3F8801029401160C3F88050D3F85D
:10705000841051604FF0FF32C3F88420047006B9E9
:1070600062B670BD0370FAE7EC30002000E100E08A
:10707000FC06FFBD084B9A6810B55AB150B9EFF342
:10708000108172B6054A1C6814605C685460986090
:1070900001B962B610BD00BFEC30002000E100E095
:1070A000435882B03BB10023435043580193019BA6
:1070B000012002B070471846FBE70000F8B5224BEC
:1070C0004679224C43F82620214A224B9B1A04EB96
:1070D000C602DB0812791B04F70032B143F002004C
:1070E0001D49FFF765FC0820F8BD02680D88C2F84D
:1070F000085590F9045002798978002DADBF05F14B
:10710000604CDFF85CC002F00F0E0CF5614C4FEAEA
:107110004111C9B2B4BF0CF80E108CF800136D0900
:107120000121DFF840C002F01F0201FA02F24CF820
:107130002520E21944F83600117143F00300074995
:10714000FFF736FC0020CFE700310020F8300020A8
:107150002CC202006CC2020010C4020032C4020041
:1071600014ED00E000E100E0036801221A607047BE
:10717000036801225A60704773B501F15005AD00F4
:107180000068ADB24FF480348C400026C0F808434C
:10719000C0F84843465101F5A8714559019522F0C0
:1071A0007F42019D40F82120C0F844430BB1C0F854
:1071B000044302B070BD00002DE9F74F0D4622F0E8
:1071C0007F4402684FF4803705F150068F408046B7
:1071D000B60002EB8500C2F84873B6B2C2F8087375
:1071E000D2F8041599464FF0000BD0F84035C0F89E
:1071F000401542F806B05B1A9259009223F07F4383
:10720000012B009A4FEA850A0CD1264B4FF480607F
:1072100043F001039847D8F8003043F806B09B5973
:107220000193019BD8F80010D1F80465C1F84473AC
:10723000A31B23F07F43012B1CD11A4B05F5A87526
:10724000013443F0010341F825404FF48060984732
:10725000D8F80030D3F804359E4209D1D8F8003070
:107260000020C3F84473C3F8047303B0BDE8F08F83
:107270000D20FAE78A44C9F1FF13CAF84045D1F856
:107280000405221A013A22F07F4203F57F4393421C
:10729000EED3002AE2D10134CAF84045D1F80435D2
:1072A0009842DAE750C4020003680222C3F844237C
:1072B00009B1C3F80423704700684FF48271FFF7E7
:1072C000EFBE4FF4803303FA01F10368C3F84813AB
:1072D000C3F80813704750318900006889B2FFF77E
:1072E000DFBE0368D3F804057047000090F904304E
:1072F00001215A0903F01F0301FA03F34032024946
:1073000041F82230704700BF00E100E0024B034A21
:107310001B681068184700BF00310020F8300020BB
:1073200010B561B1B2FBF3F403FB1424A4B244B969
:10733000C0E9001484608281C381204610BD0E2004
:10734000FCE70920FAE737B550E8013F9DB2C48950
:1073500025448489A54228BF2D1B0489A54202BF6C
:10736000BFF32F8F002207E0C5EA030540E8015470
:10737000002CE9D14FF001028DF803200193019B0D
:107380009DF803200B6002F0FF0322B10B88006818
:10739000184403B030BD1846FBE70A884B889A4270
:1073A00009D150E8012FC2EA024240E80123002B34
:1073B000F7D1012070470020704737B550E8023FF1
:1073C0001FFAA3F5C488A54202BFBFF32F8F002286
:1073D0000DE0C48925448489A54228BF2D1BC3EA3A
:1073E000054540E80254002CE8D14FF001028DF829
:1073F00003200193019B9DF803200B6002F0FF0323
:1074000022B14B880068184403B030BD1846FBE732
:107410000A884B889A4209D150E8022FC2EA2242D8
:1074200040E80223002BF7D101207047002070476D
:1074300001F01F024B090121914000EB830000F095
:107440001EB801F01F0301229A404B0900EB830094
:10745000D14300F02CB84B0901F01F0150F8230074
:10746000C84000F00100704710B5034653E8000F14
:107470000A4643E8002494F0000FF7D110BD10B580
:10748000034653E8002F42EA010043E8000494F069
:10749000000FF6D110BD10B5034653E8000F00EA07
:1074A000010243E8002494F0000FF6D110BD10B59E
:1074B000034653E8002F02EA010043E8000494F079
:1074C000000FF6D110BD10B5034653E8002F02EBB4
:1074D000010043E8000494F0000FF6D110BD10B590
:1074E000034653E8002FA2EB010043E8000494F0A8
:1074F000000FF6D110BD0121FFF7C1BF0021FFF73A
:10750000CABF37B5054600240DF107008DF80740C6
:10751000FFF78CFD2A686B68116899420ED9481EE6
:10752000106011F8014CEB68298A01FB0434AB6848
:1075300011791B1ADBB2994238BF13719DF807000D
:10754000FFF798FD204603B030BD37B50546002350
:107550000DF107000C468DF80730FFF767FD2A682C
:107560001368591C1160E968641A298AB4FBF1F4A4
:107570001C709DF80700FFF77DFD03B030BD8268E9
:1075800010B504462AB14369016800699847002391
:10759000A36010BD0EB403B5039921B104AB01AAD9
:1075A000019300F077F802B05DF804EB03B0704788
:1075B0000A2938B504460D4602D10D21FFF7F8FF20
:1075C000A3682268591CA160D554D4E901329A42BB
:1075D00004D32046BDE83840FFF7D1BF38BD0000D6
:1075E0002DE9F84F9846DDE90A43154682460F46D5
:1075F0000A464FF00109AA420FD2C14538BFC14621
:1076000013F0010B01D16CB900240126B8F1010F70
:107610001BD908F1FF386E43F8E709F10109B2FB05
:10762000F5F2E8E79B070ED5B8F1000F0CBF302646
:107630002026A145E9D2013C31465046FFF7B8FF6C
:10764000002CF6D1E0E72026F3E7B7FBF6F39D42E6
:10765000E1D9DFF83C80B7FBF6F3504618F8031089
:1076600006FB1377FFF7A4FF3346AB42B6FBF5F6F4
:10767000F1D2BBF1000F02D00CB1A14501D3BDE89E
:10768000F88F20215046013CFFF792FFF4E700BF3E
:1076900056C402002DE9F74F0546174688460029D3
:1076A00000F0428118F8011B49B92B7B002B00F038
:1076B0003B81284603B0BDE8F04FFFF760BF2529A6
:1076C00040F0B780002698F800302D2B424608F194
:1076D000010823D0302B24D02B2B25D000242A2B9B
:1076E00002F1010123D13B681A1D1B683A601C445A
:1076F0000A4613782E2B26D101324FF0000A10468D
:1077000010F8011BA1F1300CBCF1090F1DD80A23A0
:1077100003FB0A13A3F1300A0246F0E746F0010624
:10772000D1E746F00206CEE746F00406CBE711F8B3
:10773000013CA3F130000928DBD80A2202FB043403
:10774000303C0A46CBE74FF0000A12F8011B01F06B
:10775000FB0068289046F8D0782909D86F290CD802
:10776000632962D022D8252963D0582900F0888067
:1077700098F80030002B95D197E770390829F7D891
:1077800001A353F821F000BF0379020071770200D2
:107790007177020091780200717702006F78020021
:1077A000717702007177020081780200642901D0AC
:1077B0006929DDD13A68D2F80090111D89EAE97291
:1077C0003960A2EBE9724FF0010B092A35DCD34591
:1077D00038BFD3462CB1B9F1000F01DB720700D5D9
:1077E000013CB30702D5BAF1000F03D0F00701D472
:1077F0004CBB0024B9F1000F2DDAC9F100092D218D
:107800002846FFF7D5FE06F00302022A04D1BAF19A
:10781000000F01D11CBB0024CDE9004653460A22CB
:1078200049462846FFF7DCFEA2E73B681A1D197897
:107830003A602846FFF7BCFE9AE70A230BF1010BDA
:10784000B2FBF3F2C1E7A345D4D220212846013C84
:10785000FFF7AEFECCE77107D5D52B21D0E7A345C6
:10786000DAD230212846013CFFF7A2FED2E7396880
:10787000CDE900460A1D3A6053460A220968D0E75E
:1078800039680A1D3A60CDE9004653461022F5E7F3
:107890003B681A1D3A6016F00106D3F8009028D113
:1078A000B9F1000F03D0484603F0C2FC0646B442CB
:1078B00000D904BB09F1FF3919F8011F00293FF471
:1078C00057AF2846FFF774FEF6E728460136FFF764
:1078D0006FFE19F806100029F7D1A642BFF448AF91
:1078E000002C3FF445AF20212846013CFFF760FE05
:1078F000F3E70026EDE720212846013CFFF758FE7C
:10790000D5E73B681A1D3A60302128461C68FFF70E
:107910004FFE78212846FFF74BFE00220823CDE9D1
:107920000032214610227CE703B0BDE8F08F00BF93
:107930002DE9F84FB0F806A04579D2F800B09DF8CF
:1079400028900AFB05F5043D88460BEB0301A9428C
:1079500003F1040488BFA5EB030BB4FBFAF607465A
:107960000AFB1644C2F800B04EB9AAEB04055D4507
:1079700028BF5D46BBF1000F04D1BDE8F88F3F681A
:10798000013EF1E7043408EB06003C442A46B9F115
:10799000000F0DD02146ABEB050B03F0EDFBDA45F4
:1079A0002E443F6855464FF0000428BF5D46E1E78E
:1079B00001462046EFE7F8B546790146721E0546B6
:1079C000002393422D6803D30024A64202D8F8BDB9
:1079D0000133F6E70F682846FFF7B7FD0134394653
:1079E000F3E72DE9F843068ACD1C0746FFF789FD2A
:1079F000043E35440446B5FBF6F5F0B14FF4807310
:107A0000EDB28380C680013D076081464FF00008DB
:107A1000A84512D23846FFF774FD064648B163798F
:107A20000133637108F10108C9F80000076081465D
:107A3000EEE72046FFF7BFFF34462046BDE8F88357
:107A400001210430FFF73FBD10B501210446043089
:107A5000FFF745FD10F0FF0F04D12046BDE81040B0
:107A6000FFF7A9BF10BD1FB503920022009203AA21
:107A7000FFF75EFF05B05DF804FB1FB5039201221E
:107A8000009203AAFFF754FF05B05DF804FB0B68F2
:107A90004A684360934208BF0023016008BF436007
:107AA0007047436843B10268916852680B4493423F
:107AB000436004BF00234360704770B544680646C6
:107AC0000D46206818B1B3682946984718B923684D
:107AD0002B60256070BD2468F3E74368186808B11F
:107AE00002681A60704743681868704743681868EE
:107AF00000B97047884203D102681A6001207047BC
:107B000003460068F4E7000010B50D49A1F5947232
:107B1000914201D800200FE08C1AE30F03EBE4033D
:107B20005B1002EBC30452F83330834205D802D213
:107B300004F10802ECE7606810BD2146E8E700BFE9
:107B400070C9020008B5FFF7DFFF024B002808BF2D
:107B5000184608BD32C802000C4B1B78062B10D10A
:107B60000B4B1B681A070CD10A4B186800F0F00386
:107B7000302B08D000F0E000A0F1400358425841FB
:107B80007047002070470120704700BFE00F00F0F1
:107B9000E40F00F0E80F00F0094B1B78062B0CD126
:107BA000084B1B681A0708D1074B186800F0F00053
:107BB000A0F130035842584170470020704700BF81
:107BC000E00F00F0E40F00F0E80F00F008B5FFF759
:107BD000C3FF28B17D4B7E4A1B68C3F304231360A7
:107BE000FFF7DAFF10B17B4B7B4A1A60FFF7B4FF57
:107BF00028B17A4B7A4A1B68C3F342331360FFF70C
:107C0000CBFF20B1774AD36823F08073D360FFF7AE
:107C1000A3FF40B14FF080430022C3F80C21C3F80A
:107C20001021C3F83825FFF7B7FF10B16E4B0322C0
:107C30001A60FFF7B1FF40B16C4B05221A600122B8
:107C40009A6700229A603F225A60694B1B78062B84
:107C500050D1684B1B6819074CD1674B1B6803F068
:107C6000F003502B46D14FF08052644BD2F80414ED
:107C7000C3F82015D2F80814C3F82415D2F80C1450
:107C8000C3F82815D2F81014C3F82C15D2F8141420
:107C9000C3F83015D2F81814C3F83415D2F81C14F0
:107CA000C3F84015D2F82014C3F84415D2F82414B0
:107CB000C3F84815D2F82814C3F84C15D2F82C1480
:107CC000C3F85015D2F83014C3F85415D2F8341450
:107CD000C3F86015D2F83814C3F86415D2F83C1410
:107CE000C3F86815D2F84014C3F86C15D2F84424D0
:107CF000C3F87025FFF730FF28B1414B414A1B689C
:107D000003F04F031360FFF727FF48B14FF08043A4
:107D1000D3F80024D20744BF6FF00102C3F8002457
:107D2000394B1B68062B08D1384B1B68062B01BF4B
:107D3000374A136843F480631360364AD2F88830B8
:107D400043F47003C2F88830BFF34F8FBFF36F8FD7
:107D50004FF01023D3F80022002A03DBD3F80432BB
:107D6000002B2FDA2C4B0122C3F80425D3F8002472
:107D7000002AFBD04FF010221521C2F80012D3F8D0
:107D80000024002AFBD04FF010231522C3F8042250
:107D9000214B1A46D3F800140029FBD00021C3F868
:107DA0000415D2F80034002BFBD0BFF34F8F1949D4
:107DB0001A4BCA6802F4E0621343CB60BFF34F8FE3
:107DC00000BFFDE7164B174A1A6008BD24030010D8
:107DD0004035014074C007400DF0ADBA44020010B8
:107DE0003C050040F0ED00E0A005004010560040CA
:107DF000E00F00F0E40F00F0E80F00F000C00040DA
:107E000058020010E40E0040300100103401001050
:107E10003C17004000ED00E000E001400400FA05DE
:107E2000E82A00200090D00338B5074C051E04F165
:107E3000080318BF1C4623682BB11A6822605B68D0
:107E400028469847F7E738BD0C31002020B9054B8C
:107E500001225A70FFF7E8BF012802D1014A907051
:107E6000F8E770470431002020B9034B01225A7013
:107E7000FFF7DABF704700BF0431002038B50B4C64
:107E8000237883B90A486360A3602361E36000F04C
:107E900057F8054602F04EFB08B900F05DF80123E3
:107EA0002370284638BD8525FBE700BF043100203C
:107EB0004D7E020037B50B4C00230DF107008DF805
:107EC0000730FFF7B3F8E368013BE360E56815B9F5
:107ED00000F054F8A5709DF80700FFF7CBF803B049
:107EE00030BD00BF04310020012813B508D003289D
:107EF0001CD018B9104B0122C3F8802002B010BD6D
:107F00000E4C00230DF107008DF80730FFF78EF8B7
:107F100023780BB9FFF7B2FFE3689DF80700013340
:107F2000E3600123A370FFF7A5F8E7E700F014F87A
:107F3000FFF7C0FFE2E700BF00E100E004310020EE
:107F4000044A137923B901211060918018467047C3
:107F50008520704718310020074B1A68D2075FBF91
:107F6000C02283F8002301221A604FF080430122CF
:107F7000C3F81825704700BF00E100E0044B012260
:107F80001A604FF08042D2F81834DB03FBD47047FC
:107F90000C000040154B07B51A687AB100221A6030
:107FA0001B680093009B4FF080430122C3F8082315
:107FB0000F4B587910B95A711B6898470D4B1A68C6
:107FC00082B100221A601B680193019B4FF080432D
:107FD0000222C3F80823064B1B68012003B05DF89A
:107FE00004EB184703B05DF804FB00BF000100403C
:107FF000183100200401004000F1804000F5C0402D
:10800000002382B0036003680193019B02B07047B4
:10801000800000F1A040D0F8002722F44032C0F8E0
:108020000027D0F8003743EA0141C0F80017704735
:108030002DE9F04F87B000245A4D03944FF480721D
:10804000012102F1804303F5C04390B21B68012B6C
:1080500006D1D5F804330B4202D0FFF7CDFF0C4315
:108060000432B2F5907F4FEA4101EAD14E4B1B68D2
:10807000012B0AD14FF4BE70FFF7BEFF4FF0A043B3
:1080800044F00044D3F81035039314F0FF0F1AD0D6
:10809000464F00250126344210D0AB0003F1804347
:1080A00003F5C043D3F81005D3F8101557F8253061
:1080B00023B1C1F30141C0F3042098470135082DD5
:1080C0004FEA4606E7D1002C65DA00214FF0FF3376
:1080D000CDE90413354D01274FF0000A344ED14647
:1080E0004FF0A04816F9013B5A1C45D0C3F3C2011A
:1080F00006AA5018DCB210F8042C03F03F0B03F072
:10810000070307FA03F31A4236D005EB0B02A40962
:1081100092F9302055F8222052B9032C2CD10DF1C0
:10812000100E1EF801C04CEA030C0EF801C001E06D
:10813000032CF4D00BF5E07110F80C0C58F821105A
:108140001842C1F3014105D0022915D1032C0FD1EA
:10815000214604E003290FD1032C09D102215846FE
:10816000019209F10109FFF753FF019A5FFA89F9BA
:1081700012B12146584690470AF1010ABAF1040F9C
:10818000B0D1B9F1000F06D04FF0A043039AD3F855
:108190001035934202D107B0BDE8F08F0393049BE2
:1081A000059399E7006000407C6100402031002089
:1081B00070310020014B1B68184700BF7C31002044
:1081C00000F1804000F5E040002382B003600368C6
:1081D0000193019B02B07047F0B5504B504C1B68A7
:1081E00085B0002B3DD04FF4827094F82E20FFF71D
:1081F000E7FF2AB394F82F3013BB4A4B1B68002BC0
:1082000033D04FF48070FFF7DBFF638B94F82D10B1
:108210008B424FD922895B1A9BB292B26383D31AE5
:10822000626802EB4303404AC2F82C36C2F83016AB
:108230004FF48270FFF7C4FF3C4B01221A6014E038
:10824000636802932389ADF80C30E36800218DF850
:10825000041023BB2374236801A89847002384F8E3
:108260002F3094F82E30002BC7D1314B1B685BB1F7
:108270004FF48870FFF7A4FF0023237402238DF8C6
:10828000043001A8236898472A4B1B68EBB14FF4D0
:108290008A70FFF795FF0023237405B0F0BD208B93
:1082A000608363602081E160002AD4D11E4B0122EB
:1082B0001A60D0E7BCD1E368012284F82F2013B103
:1082C00000226283AFE76383B2E766694FF000473D
:1082D0000125002EE1D0B6FA86F227FA02F34632E3
:1082E000920026EA030602F1804303F5E0431B688F
:1082F000002BEED01046FFF763FFA2F58C72D30877
:1083000082F00402C2F380028DF808308DF8045028
:1083100023688DF8092001A89847DAE70471004026
:108320008431002000710040007000400470004063
:108330001071004014710040032811D8012A0AD19D
:1083400001290FD100F10E02D2B20D4B00EB40001B
:108350001A54002070470129F7D0022904D049B1EE
:10836000072070470022F8E7054B00EB4000184457
:108370004270EEE7024B00EB400018448270E8E7E1
:10838000B431002008B5012202210020FFF7D4FFFC
:1083900008B1072810D1072202210120FFF7CCFFE6
:1083A00008B1072808D100210A220846FFF7C4FFB8
:1083B00010B1072808BF002008BD00000388102B5B
:1083C00010B502D0112B1ED010BD1A4C2168B1B9C6
:1083D00001220846FFF7B0FF08B1072824D1072281
:1083E00002210120FFF7A8FF08B107281CD10422B1
:1083F00002210020FFF7A0FF08B1072814D123684D
:1084000001332360E0E70B4A1368013B1360002B44
:10841000DAD1FFF7B7FF0028D6D0074B1B68002B37
:10842000D2D0BDE810401847034B1B68002BE6D0A4
:108430009847E4E7C4310020C031002076DF704760
:108440007ADF70477CDF70478FDF70477047704777
:1084500008B51F4B01225A601E4B188840F2553355
:10846000984227D8B0F50E7F26D902F0ABFC14A3B2
:10847000D3E9002302F00CFB174B002202F00CFBA7
:1084800011A3D3E9002302F0A3FB02F087FCC1B2E1
:108490004FF6FE72114801F05DFF30F008020DD07A
:1084A00013280BD043F20142904207D0BDE80840A8
:1084B000FEF7CCBB6421EBE70021E9E708BD00BF74
:1084C000721CC7711CC78140701CC7711CC77140EA
:1084D000007000400C39002000005940C0360020D8
:1084E000074B4A881B889A4208D10A8840F67723AE
:1084F0009A4201BF8B88034A033B1380704700BF39
:10850000EC2A0020EE2A002008B5037833B9044B8A
:108510003B211888FFF792FF024B186008BD00BF8F
:10852000EC2A0020A83600207047000013B501F0A7
:10853000C3FF074C0023206001A90120019302F032
:1085400049F8206001A802F015F9206002B010BDC2
:10855000A836002030B5082285B00DEB02000021BE
:1085600002F033FE1149124C124D112308468DF8CA
:10857000043002F05DFE0D4982B201A8FFF762FFF0
:108580000D4A20604FF0FA7302A8CDE90223FFF7ED
:1085900057FF0A492060284601F082FBF72120603E
:1085A000284601F091FB206005B030BD98C902005B
:1085B000A8360020AC36002010002000E184020024
:1085C00010B586B004220021684602F0FEFD0422A8
:1085D0000DEB0200002102F0F8FD1022002102A89C
:1085E00002F0F3FD0E4B0F48019301A901F05AFC74
:1085F0000D4C0E4B206069460D48009301F060FD64
:108600000023206002930122049302A9094B0A4827
:108610008DF80C20059301F029FE206006B010BDF6
:108620004D840200FC360020A83600202589020077
:10863000F02A002064010101C036002073B5194CF6
:10864000194EAC220021204602F0BFFD04238DF814
:1086500007300DF1070363604FF4A0636380134B91
:108660000125022241F60F0122709D709D719980B3
:108670001D80A4F84C202365402242F6E063C4E943
:10868000222321460A4BC4F8A430304684F87C509B
:1086900000F0BEFD074B29461860304600F0B5FDDE
:1086A00002B070BDC831002074320020143900209F
:1086B0004F840200A836002000B589B000211C229A
:1086C00001A802F082FD00234FF4A032CDE901326F
:1086D000ADF812308DF814304FF4F022074B0392AE
:1086E00006930322064B079301A88DF8102001F092
:1086F0004DF8044B186009B05DF804FB09850200D1
:1087000029850200A83600201FB5019002F090FDD7
:10871000074BADF80E001B88019906480DF10E02BB
:1087200001F048FD044B186005B05DF804FB00BF84
:10873000EC2A0020F02A0020A83600200D4B012250
:1087400000210620DA605A60C3F80015C3F80C0552
:108750000820C3F81405C3F86C150749C3F824159D
:108760000649C3F808130421C3F800159A601A607B
:10877000704700BF0020004000E0D70187020200E0
:1087800070B5044602F054FD0023094982B21E462A
:10879000DDB2954200D370BD605DC1F81C05D1F813
:1087A0001C010028FBD0C1F81C610133F0E700BFB9
:1087B0000020004070B5044602F03AFD0022134B41
:1087C00081B21646D5B28D4215D30A22C3F81C25B4
:1087D000D3F81C21002AFBD00022C3F81C210D2253
:1087E000C3F81C25094BD3F81C21002AFBD000221A
:1087F000C3F81C2170BD605DC3F81C05D3F81C01D3
:108800000028FBD0C3F81C610132DBE700200040E8
:1088100008B51C48FFF7CEFFFFF788FE1A48FFF7A0
:10882000C9FF1A48FFF7C6FFFFF794FE1648FFF787
:10883000C1FF1748FFF7BEFFFFF7C2FE1248FFF760
:10884000B9FF1448FFF7B6FFFFF7F8FE0E48FFF731
:10885000B1FF1148FFF7AEFFFFF72EFF0A48FFF701
:10886000A9FF0E48FFF7A6FF0D48032100F04FFDBA
:108870000C4B186020B90448BDE80840FFF79ABFC8
:108880000948F9E7A1C90200BCC90200C6C9020033
:10889000F0C9020026CA020055CA020080CA0200BE
:1088A00074320020A8360020A3CA02000388112BCE
:1088B00013B5044615D0212B22D0102B1ED11448FD
:1088C000FFF778FF4FF0A0434FF40032C3F80C25B8
:1088D000104BA1881048198001F0F6FA0F4B186070
:1088E0000CE00F48FFF766FF4FF0A0434FF4003253
:1088F000C3F80825074B4FF6FF721A8002B010BD6F
:10890000002301A98088ADF80430FFF79DFDE5E75D
:10891000ABCA0200EC2A0020FC360020A83600205A
:10892000C6CA02002DE9F0410478B2B00546A4B9E8
:10893000868A1249124FDFF850803246684602F0AC
:10894000F5FB6846FFF71CFF2346D8B2B04203F19F
:10895000010405D30B48FFF72DFF32B0BDE8F081CD
:108960002B691A5C27F810204146684602F0DEFBAE
:108970006846FFF705FF2346E7E700BFD3CA0200BA
:108980000C37002030C3020047C302004FF0A04361
:108990000F22C3F84427D3F80425520C4FF40032B9
:1089A00014BFC3F80C25C3F808257047164B0022E6
:1089B000C3F800251B22C3F808251A22C3F80C258A
:1089C0004FF0CC72C3F824255A22C3F8882501221F
:1089D000C3F800224FF48042C3F804238022C3F876
:1089E00004230422C3F804234FF40072C3F80423C1
:1089F0004FF48022C3F804230222C3F80423052283
:108A0000C3F80025704700BF0030004000000000A0
:108A100070B5314C0723C4F81C350123A360D4F88A
:108A200048315A1EC4F84821002BF8D02B482A4E52
:108A3000FFF7C0FE01232362354623602362D6F888
:108A400008315A1EC6F80821002BF8D02448254CBE
:108A5000FFF7B0FED6F81835237001233362D5F83E
:108A600008315A1EC5F80821002BF8D01E48FFF720
:108A7000A1FED5F81835637001232B626B61164D8A
:108A8000D5F808315A1EC5F80821002BF8D0174830
:108A9000FFF790FED5F81835A3706078237803EBC4
:108AA000002002F08FF908A3D3E9002301F0F4FFBE
:108AB00007A3D3E9002301F0EBFF02F0B1F90C4B5F
:108AC000186070BDAFF300807B14AE47E17A943F2D
:108AD000666666666612714000300040ECCA0200AD
:108AE000EECA020008370020F0CA0200F2CA0200F3
:108AF000103900204FF080430122D3F8001101B952
:108B00001A600B4B002109209A60C3F81815C3F8AE
:108B10001005C3F81415C3F8F8150649C3F8F02575
:108B2000C3F82C16C3F83026C3F800251A60704726
:108B3000007000400C390020F0B58FB0FFF7FEFD4B
:108B4000FFF724FFFFF7D6FFFFF730FFFEF740F9EE
:108B500008B1FEF77BF81A4A1A480121FEF76AF9B4
:108B600008B1FEF773F8184800224FF40041FEF7F1
:108B70006CF908B1FEF76AF8FFF74AFE1348144C87
:108B8000144E154FFFF716FE44F00104FFF740FFA7
:108B9000306802F02BF902460B4601A8394602F074
:108BA000C5FA01A8FFF7B0FD01A8FFF703FE4FF4D7
:108BB000FA754FF47A40A047013DFAD1E6E700BFCD
:108BC0005184020018CB0200D8360020F4CA0200FB
:108BD00010CB0200103900200BCB02000369C168E2
:108BE0008B429DBF8268D21802F1FF3203F1FF333E
:108BF00094BF501A581A70472DE9F843D0E90294EF
:108C00000546A9EB04084068904520440F461444EB
:108C100004D902F0B1FAEC60BDE8F8834246A4EB57
:108C2000090402F0A9FA6868224607EB0801F0E798
:108C30002DE9F843C5680646894617464FF00008F7
:108C40003469B3687068A54228BFE418013C621B10
:108C50005C1BBC4228BF3C46944228BF1446494690
:108C60002844224602F088FAB3682544AB4208BF84
:108C700000253F1BA044A144F560E1D14046BDE87A
:108C8000F8830000F8B5184C182300FB033503FBEC
:108C900000402544C46A012C0F4616460FD0022C12
:108CA0001AD0F4B92846FFF799FF864205D8324614
:108CB00039462846FFF7A0FF34462046F8BD28462F
:108CC000FFF78CFF8642344628BF044622463946C9
:108CD0002846FFF791FFF0E72846BDE8F840FFF788
:108CE000A7BF0024E9E700BF183900206DDF7047F7
:108CF00079DF70477DDF704764DF70472DE9F04F03
:108D000085B000250E9CBDF83CB0B4F800A00191E0
:108D1000074690461E46A9463A884A450DDC45B1AD
:108D20002388013BA3EB0A039BB2FF2B3AD806F83A
:108D30000A30002005B0BDE8F08F7A6852F82900AB
:108D4000039000220DF10B0103A8FFF7D5FF0028C7
:108D5000F0D19DF80B20424521D12288002D14BF6F
:108D60000020022002EB0801014459451ADC3DB9FC
:108D7000013292B2019B2280B354228801322280B8
:108D800022880DF10B01324403A8FFF7B5FF00283C
:108D9000D0D121889DF80B200A442280012509F1B9
:108DA0000109B9E70C20C5E72DE9F341089FBDF89B
:108DB00024801546CDE90078022204461E46FFF7BE
:108DC0009DFF50B93346102229462046CDE9087848
:108DD00002B0BDE8F041FFF791BF02B0BDE8F081FD
:108DE0002DE9F04F00231788138090F82D3085B0BF
:108DF00006460D46144653B3082F01D80C2027E130
:108E000002A8FFF773FF002840F022812388082280
:108E1000EA54238801339BB21B222380EA54208822
:108E2000013080B2208006220DF10901284402F0B1
:108E3000A3F923889DF8082006339BB212F0FE02A6
:108E400018BF01222380EA54238801332380B3789A
:108E5000FBB123880433BB42D0D802A8FFF748FFF8
:108E6000002840F0F58023880322EA542388013348
:108E70009BB219222380EA542388BDF808200133CD
:108E80009BB2E9182380EA54120A4A7023880233FD
:108E90002380F2789AB12388D91CB942AED8022136
:108EA000E954238801339BB201212380E9542388AC
:108EB0000B449BB22380EA5423880B4423807268BE
:108EC000AAB12388D91CB94298D8022192F900206E
:108ED000E954238801339BB20A212380E954238873
:108EE00001339BB22380EA542388013323803389E2
:108EF000002B40F0A180338A5BB1CDE900472B46BF
:108F00000722032106F11000FFF74EFF002840F072
:108F10009F80338B5BB1CDE900472B46152214218E
:108F200006F11800FFF740FF002840F09180326AF8
:108F3000002A40F09080D6F82480B8F1000F30D09D
:108F4000B8F804302188981C8A1C0244BA423FF6C3
:108F500055AFFE283FF652AF03336B5423880133DD
:108F60009BB2FF222380EA54238801339BB22380E3
:108F7000B8F80020EA54E918120A4A702088023032
:108F800080B22080B8F804205AB1D8F8081000291F
:108F90006BD0284402F0F0F82388B8F8042013447A
:108FA000238096F82C30002B40F09A8030780028EF
:108FB0004ED03388012B58D0228802F1020CBC45D8
:108FC0003FF61CAF012805D17378023313449F424A
:108FD000FFF414AF023FBF1ABFB202A905EB0C00A9
:108FE000ADF80870FFF786FE90BB3178BDF8083009
:108FF000022900F0BA8072789A4202D3BB4240F252
:10900000B280012940F0B380974293B2C0F0AF80A4
:10901000ADF808300821BDF80830FE2B3FF6EEAE63
:1090200022880133AB542288013292B22280A954A3
:109030002288134423800BE0CDE900472B4606220B
:10904000022106F10800FFF7AFFE00283FF453AFFE
:1090500005B0BDE8F08FB4F800C00CF10603BB42C8
:109060003FF6CCAE1188052901D80720F0E76FF450
:10907000486E01EB0E039BB24FF27D3E7345F4D96F
:109080005388052BF1D96FF44860181880B27045E9
:10909000EBD94FF6FF70814203D0834201D0994251
:1090A000E3D8052305F80C30238801339BB2122145
:1090B0002380E954238801339BB223801188E9542B
:1090C000E818090A4170238802339BB22380528832
:1090D000EA54E918120A4A702388023323802AE7E7
:1090E000B36A002BC1D04FF000094FF00C0A4FF0CB
:1090F000160B96F82C305FFA89F293427FF656AF42
:10910000B16A0AFB02F201EB0208B8F80430981CBD
:10911000FE283FF673AE208803332B542388013397
:109120009BB2238005F803B0238801339BB22380D0
:109130008A5AEA54E918120A4A702088023080B22A
:109140002080B8F804205AB1D8F8081000298CD033
:10915000284402F011F82388B8F80420134423802F
:1091600009F10109C5E7092155E7BB42FBD9ADF873
:1091700008704FE770B5E8B14AB116880024B442D0
:1091800003D305196D789D4208D0A14201D8002073
:1091900010E0055D01352C44A4B2F0E7A142F6D9F8
:1091A000005D0138A31C80B29DB210FA83F38B429C
:1091B000EDDC158070BD13B513460022ADF8062016
:1091C0000DF106020446FFF7D5FF10B1BDF80630D9
:1091D000E01802B010BD72DF704773DF704738B51A
:1091E000012204460D46B0F81414D0F81004FFF71D
:1091F000E2FF00B1057004F13C0204F5826104F164
:109200005400BDE83840FFF7E6BF80F830107047E3
:10921000F8B504460F46002975D0002873D091F8A0
:109220007A301BB191F89830002B6ED1D7F8A0306E
:10923000042B6AD0D7F89C30042B66D04FF0000C7A
:1092400084F802C007F178060FCE251D0FC50FCE9A
:109250000FC596E8070085E8070084F830C0D7F806
:10926000A4306363D7F8A830A3634FF6FF7504F505
:109270008263C4F82034A4F824540722614604F21F
:10928000264001F0A2FF23780BB984F8545094F8DB
:109290002430002B14BFEE231F2304F15501C4F822
:1092A0001014A4F8143404F214423846FFF798FD61
:1092B00040BB94F82430002B14BFEE231F2304F28C
:1092C0003121C4F81814A4F81C3404F21C4207F12C
:1092D0003C00FFF785FDA8B9A369A4F848304FF416
:1092E00080730125A4F8503063692064014684F836
:1092F0003C50636404F13C0204F15400FFF76BFF3F
:1093000000B92570F8BD0E20FCE70720FAE7F8B594
:10931000077804460D46002F00F0038100F2264630
:10932000817007220021304601F04FFFE38813B11E
:10933000A378012B04D0E3794BB1A378022B06D19B
:10934000636BA3B1012284F82D240820984733468B
:1093500004F22C4113F8012F12B99942FAD11746A1
:109360006B1E032B51D8DFE803F0050B0F1284F8B6
:109370002D34ECE7A3791BB194F8243003B95FB91D
:10938000E3790BB1002F42D1237A002B41D1637ACC
:10939000002B0CBF00250425636BA570002B3AD071
:1093A000033D012D37D86279AAB394F82E2492BBDD
:1093B00084F83024012284F82F240720984704F1F0
:1093C0003C0518220021284601F0FFFEE26A531EE8
:1093D0000121022B28BF0A4684F8512094F824204A
:1093E00084F83C1032B1A36A581E022828BF0B46ED
:1093F00084F85230A178002384F8503004291BD817
:10940000DFE801F0770D223559000025C4E7022579
:10941000C2E70325C0E7002384F82F34CFE7C4E96F
:109420001063C4F820340223012284F83C308023E6
:1094300084F83120A4F84830A378002B5CD1636B0A
:10944000002B6AD1002067E00223002A84F8313023
:1094500014BF0723032384F83C302369A4F8483061
:109460000023C4F82034E36826646364E4E7636996
:109470006364A369A4F8483012B1062384F83C3031
:109480006379B3B194F82E349BB994F8303483B136
:10949000022384F8503004212046FFF7A0FE002864
:1094A000CAD1052384F8313004F58263C4F820342E
:1094B000C2E70323F6E7E3696364236AA4F848304C
:1094C00012B1062384F83C30637983B194F82E34CA
:1094D0006BB994F8303453B1022384F8503004212E
:1094E0002046FFF77CFE0028A6D10623DAE70423F6
:1094F000D8E784F831309FE7D4F820142A4604F1E5
:109500005400FFF768FE38B994F8301094F854000E
:10951000FFF763FE002892D0F8BD94F83100984719
:1095200090E70820F8E70388112B10B50C460AD005
:10953000262B1FD0102B05D1C37B012B02D1838892
:10954000A1F8243410BD0022838881F82E24B1F8BC
:1095500024249A42F6D10B79002BF3D10121204625
:10956000FFF7D5FE0028EDD0A36B002BEAD0BDE8B5
:1095700010401847037A013B012BE3D88978052373
:109580000131B1FBF3F303EB8303C91AC9B2E6E778
:1095900075DF704776DF70477ADF70477BDF704793
:1095A000034B1A8882420CBF18460020704700BF48
:1095B000AC390020024B9B6903B11847704700BFCC
:1095C0009039002073B585B22846FFF7E9FF0446BD
:1095D00070B1164E027A337B9A420BD200F10A0127
:1095E0002846FFF7D5FFE8B1112801D0FFF7E2FFC9
:1095F00002B070BD00230372337C43B13B21284687
:10960000FFF7C8FF30F0080301D0FFF7D3FF7369FD
:10961000002BEDD000228DF80420ADF8065001A8F3
:109620009847E5E7237A01332372E1E79039002078
:1096300037B50B46497A0F4A71B9D2E901141D7A40
:109640000246002D18BF21465868FDF7FEFB08B101
:10965000FFF7B0FF03B030BD002119725369002B32
:10966000F8D00122ADF806008DF8042001A8984733
:10967000F0E700BF903900204B8802889A4213D847
:1096800042889A4210D380888A8840F2F313984225
:1096900094BF031AC31A934206D800F2F310904203
:1096A00034BF002001207047002070470388122B30
:1096B00070B5014659D004D8102B1ED0112B44D0C0
:1096C00070BD502BFCD12F4BC288DB899A42F7D159
:1096D000038A022BF4D186883046FFF761FF0546E6
:1096E0000028EDD001F1120000F097F938BB68684E
:1096F000FDF7C3FB0028E3D009E0C37B012BDFD1DA
:109700004FF6FF70FFF74CFF054620B90420BDE877
:109710007040FFF74FBF1C4A8E88068000230372FB
:109720001368C0F80A305368C0F80E3010310A30A0
:10973000FFF7A2FF134B6872DB89002BC0D12946CB
:109740003046BDE87040FFF773BF8088FFF728FF01
:1097500004460028B4D04068FDF78FFB08B1FFF73E
:1097600029FF4FF6FF732380AAE786883046FFF76C
:1097700017FF05460028A3D008310A30FFF77CFF09
:109780006872DCE790390020C0390020F8B5064641
:1097900048B305460FCD154F3C460FC495E807006A
:1097A00084E807003068124C3C60B0B1FFF7F4FE6B
:1097B000C0B9326813682360536863600D480E4A6D
:1097C0004FF6FF7303800D4B40F8043F0021FDF777
:1097D00031FB002818BF032004E02046FFF7DEFE1F
:1097E0000028EBD0F8BD0E20FCE700BF9039002028
:1097F000C0390020AC390020C5950200C8390020CE
:109800000AB1FDF715BEFDF71CBE73B50191019CB1
:1098100006466CB100252C46294601A8FDF71BFE23
:1098200018B106EB440301349D800135142DF3D1AA
:109830003046346002B070BD2DE9F047038884885B
:10984000103B8CB005460A2B1FD8DFE803F0063F1B
:109850001E1E1E1E1E1E1E604400314EB368DB43DA
:10986000009371686846FDF722FE009901A8FFF792
:10987000CCFF0DF108094FF00008019B984507D374
:10988000132C13D90420FDF7E1F90CB0BDE8F087E3
:1098900039F802AB00270137514606EB8700FDF788
:1098A000D0FD1E2FF7D108F10108E6E71D4821463B
:1098B000FDF7BEFD1C482146FDF7BAFDEB7B012BF1
:1098C000E3D01A482146FDF7B3FDDEE715482146EF
:1098D000FDF7B7FDD9E7027A15483F2A4FEA12157E
:1098E000214694BF00220122FFF78AFF022D94BF78
:1098F000002201220F482146FFF782FF012D0E486A
:1099000094BF002201222146FFF77AFFBDE7037AC8
:10991000002BBAD1427A0648C2F3C0022146F3E7CF
:10992000E8390020F0390020EC390020F43900201B
:10993000003A0020FC390020F839002013280146A5
:1099400002D80248FDF787BD00207047EC3900209F
:1099500007B50190FFF7F2FF019930B10448FDF718
:109960007AFD002814BF0220012003B05DF804FB3B
:10997000F039002010B5034B04465968FFF745FF46
:10998000204610BDE839002010B50446FFF7D6FF89
:10999000002814BF2046142010BD70B50546164699
:1099A00008460AB90E2070BD00231360002DF9D0BF
:1099B0002B68002BF6D0EB8813F003040ED1FFF7D1
:1099C000E3FFC0B214280BD02B7983420AD9EB886D
:1099D0002A6800FB032030602046E4E70720E2E726
:1099E0000520E0E70420DEE7AADF7047ABDF704721
:1099F000002301380B70042806D8DFE800F00306C6
:109A0000080A0C0011230B7070472123FBE7312358
:109A1000F9E71223F7E72223F5E7007800F00100C9
:109A200070470B7803704B78437002207047F0B595
:109A30008B7891B0012B0C4638BF01238DF80E3086
:109A400005460B88ADF80C30002116466846032207
:109A500001F0BBFB607C6946FFF7CAFFA07C0DF1FB
:109A60000101FFF7C5FFE27B237B217D43EAC203AF
:109A7000227C43EA02139DF80220002922F01902F9
:109A800003F0190314BF02210121134361F34203C0
:109A90001C22002109A88DF8023001F096FB637B9F
:109AA00013F0300F15D002AF03220021384601F029
:109AB0008CFBE07C0DF10901FFF79AFF11238DF873
:109AC00008309DF80A300E97012262F342038DF8A8
:109AD0000A30637B8DF824301422A37B8DF8253067
:109AE000002104A801F071FB03AB0493A388ADF837
:109AF0001C30A368CDF814D01BB1E288ADF8182053
:109B00000893A369002B31D001AF0322002138460E
:109B100001F05BFBA3691A88ADF82C205A88ADF8D8
:109B20002E205A680D97187B0A923946FFF760FF7E
:109B3000A3690DF10501587BFFF75AFFA269917ADD
:109B4000137A43EAC103D17A927B43EA01139DF869
:109B50000610002A03F0190321F0190114BF022294
:109B600001220B4362F342038DF80630E36903B12F
:109B70000C93334604AA09A92846FFF735FF11B014
:109B8000F0BDF0B50C4689B00546164600211422FA
:109B900003A801F01AFBA378A079012B38BF012399
:109BA0008DF80A3001AF2388ADF80830394602AB92
:109BB0000393FFF71DFFE0790DF10501FFF718FF93
:109BC000E2786379217A049743EAC203227943EA6F
:109BD00002139DF80620002922F0190203F0190350
:109BE00014BF02210121134361F342038DF80630B3
:109BF0006389ADF81430A389ADF81630E389ADF868
:109C0000183032462369079303A92846FFF7EEFE72
:109C100009B0F0BD90DF7047A5DF7047B5DF704732
:109C20007FB50023ADF80810ADF80A106A4602A906
:109C3000064603930093ADF80430FFF7EBFF0546AB
:109C400000B3124B124CE41AE408FDF77BFF240426
:109C500044F0010403460F4932462046FCF7B5FEA6
:109C6000BDF80020BDF8023052EA030103D00A49D2
:109C70002046FCF7AAFEBDF804201AB10749204689
:109C8000FCF79AFE284604B070BD00BF2CC202004B
:109C90008CC202001CCB020066CB0200A5CB0200E6
:109CA00080B14FF0F7130360FB230371F723C380E8
:109CB0001723038141F6FB32002301614381828136
:109CC000184670470E20704730B1A1F11703E02B02
:109CD00004D80180002070470E207047072070478D
:109CE00013B5034680880C46B8B91A88242A00F0B8
:109CF000968014D8112A71D0232A00F09E80102A51
:109D00003BD0A37A4BB1E1880020FFF785FF002804
:109D100040F099804FF48073638102B010BD3A2AFD
:109D200065D0552AEDD1DB88C988A072172B38BFC2
:109D300017238B4228BF0B462381FFF76FFF60B1CB
:109D4000FDF700FF484B4949024649481B1ADB080A
:109D50001B0443F00100FCF72FFEE37A002BD0D167
:109D60002369002BCDD040F6772200922289ADF8EE
:109D70000420694620469847C3E7DB7B0A790A73CB
:109D8000012B13D0022B14D0E18823898B4205D2FA
:109D90000020FFF741FF70B90123E372217B637B51
:109DA0008B42AED20020FFF73BFFAAE70B88E3808F
:109DB000EAE74B88FBE7112802D10123A372EDE704
:109DC000FDF7C0FE284B2B49024629481B1ADB0829
:109DD0001B0443F00100FCF7EFFDDFE7F723CB8026
:109DE00017230B8141F6FB3348818B8189E75B891F
:109DF000CA88934228BF1346172B0A6938BF172316
:109E00000B814AB1C97A39B140F677210091ADF89A
:109E100004306946204690470023638171E71A7A2F
:109E20000B694A73002B3FF46CAF4DF67A218DF825
:109E3000050000918DF804209BE7197A237B994255
:109E400028BF1946AFE711283FF467AFFDF77AFE48
:109E5000054B0849024606481B1ADB081B0443F061
:109E60000100FCF7A9FD58E78CC202002CCC0200CF
:109E70002CC20200FBCB0200B0DF704766DF7047E8
:109E800010B5002104464088FFF7F8FF034608B9E3
:109E9000237210BD112801D10123F9E76368BDE8E1
:109EA0001040184760B159B10378DE2B0AD00B6817
:109EB0004360DE2303704FF6FF734380002070473A
:109EC0000E2070470820704728B10378DE2B04D19C
:109ED0004180002070470E20704708207047F0B581
:109EE000054685B00C46F1B1E8B10B78DE2B1AD1EE
:109EF00082884B889A4204D10B7A13B10846FFF747
:109F0000BFFF2B88112B32D0512B0ED0012B0AD141
:109F10002B7A012B07D1A9886288914203D1237241
:109F20002046FFF7ADFF05B0F0BDAE886388B342B1
:109F3000F9D1AF79022FF6D1AD7B2B1F022BF2D8CE
:109F400000211022684601F040F9052D14BF4FF49E
:109F5000C0730023694630468DF80070ADF80430B8
:109F6000FFF78AFF0028DED063689847DBE7638845
:109F7000AA889A4204BF4FF6FF736380D3E7A8DF35
:109F80007047ADDF7047AEDF704762DF704770B576
:109F900005468AB00C46002962D0002860D00388AC
:109FA000502B37D0572B72D0102B59D18188606934
:109FB000002601AA0196FFF7F0FC082231460DEBBE
:109FC000020001F002F902232189A888CDF80CD003
:109FD00002AA0293FFF7D5FF002841D1A369002B05
:109FE0003ED00398FFF719FD002839D0019B0BB133
:109FF00001221A701822002104A801F0E6F80223B9
:10A000008DF81030AB88ADF81830019B059407939C
:10A01000A36923E08188606902AAFFF7BEFC1822C9
:10A02000002104A801F0D1F8AB882189ADF81830DF
:10A03000EB88029A05949942079218D12E8A022E33
:10A0400015D16AB105F11200FFF7E7FC029B48B198
:10A0500001221A708DF81060A3690BB104A898470B
:10A060000AB070BD187003238DF81030F4E7A28990
:10A070009A42F5D1A369002BF2D000228DF810206E
:10A0800005F1120208922A8AADF82420E6E78188B9
:10A09000606902AAFFF781FC01460028E0D1029B1B
:10A0A0001B78002BDCD0182204A801F08EF80123C5
:10A0B0008DF81030AB88ADF818300594029BA6E7F8
:10A0C000F0B53A4B8FB002AD04460A4603F1100CCE
:10A0D0002F46186859682E4603C60833634535462F
:10A0E000F7D1002C5FD0002A5DD01368A361214610
:10A0F0003846FFF74AFF002853D12246012512F8BF
:10A10000023B8DF8063001A92846ADF80450FFF750
:10A1100036FF002845D10146202206A801F055F857
:10A1200022460223ADF8183012F80C3B8DF81A3095
:10A13000BDF824301E4E6088079623F44F6323F049
:10A140000F0343F440632B4306A9ADF824308DF888
:10A1500029508DF82A50FFF76AFC10BB01462022D7
:10A1600006A801F032F822460323ADF8183012F8A1
:10A17000043B8DF81A30BDF824306088079623F42C
:10A18000875323F01F0343F480532B43ADF824304F
:10A1900006A940F201138DF82950ADF82A30FFF7D7
:10A1A00046FC0FB0F0BD0E20FBE700BF70CC0200F4
:10A1B000F4000100F0B50F4687B016461C46054670
:10A1C00018B3406901AA1946FFF7E7FBD8B94FF663
:10A1D000FF739C421BD0019BCBB11B78CBB1338862
:10A1E000F42B18D80146102202A800F0EEFFAB882D
:10A1F000ADF8083002A901232046CDE904678DF8A7
:10A200000A30FFF7C0FE07B0F0BD0E20FBE70520C7
:10A21000F9E70820F7E70720F5E7A8DF7047ACDF8C
:10A220007047AEDF704737B505460C46E1B1D8B18F
:10A230000388502B18D14B7CB3B1C2884B899A420A
:10A2400012D1038A022B0FD10B686BB11230FFF7CA
:10A25000E4FBAB88ADF8063080F001008DF8040017
:10A26000236801A92046984703B030BD2DE9F0418D
:10A270000E4690B0054600286AD0002968D00B68C9
:10A2800003600B794374FF2303742A1D012041F6F8
:10A290000F0302A98DF80A00ADF80830FFF7BDFFE3
:10A2A000044600284ED12022337B8DF8033001462E
:10A2B0000DEB020000F089FF42F61923ADF82030C3
:10A2C0004FF0011309930DF103030A936B7C9DF882
:10A2D0002D20A8881B0143F0020322F0120203F094
:10A2E000120313438DF82D30B37B8DF83330AA1D44
:10A2F000737B8DF8313008A9FFF799FB044608BB42
:10A30000B16819B30DF104084046FFF78AFB2146F6
:10A310000746142203A800F058FFB8B242F608130B
:10A32000ADF80C30ADF81600F37BADF81A0005F16E
:10A330000E02E8888DF8123003A9CDF81C80FFF7D3
:10A3400020FC0446204610B0BDE8F081E881F9E722
:10A350000E24F7E72DE9F04194B016468DF807106A
:10A360000546002857D0027CCBB29A4255D003AFA5
:10A3700008220021384600F028FF4FF001080DF1B7
:10A380000703E988CDF80C803A464FF6FF70049336
:10A39000FFF745FF044610BB9DF807302B746B7C1C
:10A3A000002B3CD00146102205A800F00EFFEB88E0
:10A3B000ADF81430BDF80E30ADF81830049B08939A
:10A3C0004FF6FE739E428DF8168007971DD109A89F
:10A3D000FFF7D0FA0AAF2546099B9D4203D32046DA
:10A3E00014B0BDE8F08137F8026B3046FFF7B0FAE1
:10A3F000022805D105A9304624B9FFF712FF04460B
:10A400000135E9E7FFF70DFFFAE705A93046FFF749
:10A4100008FF0446E3E70E24E1E70024DFE7082411
:10A42000DDE710DF7047000013B5044609496846B0
:10A43000FDF72DFB019808B902B010BDD0E900214D
:10A440002046904718B16846FDF72BFBF2E7112034
:10A45000F2E700BF94CC020013B5044607496846F2
:10A46000FDF715FB019B0BB902B010BD2046D3E9E7
:10A47000002190476846FDF714FBF3E7ACCC0200DF
:10A480000B4991F816335A09EC231341DB0706D523
:10A49000084B9A683AB94FF480030B60704742F258
:10A4A0000200FCF7D3BB1A6842F480021A607047BE
:10A4B00000E100E0EC300020F7B5194F3C7864BBB8
:10A4C000184E012520463570FFF7AEFF112821D028
:10A4D0002046FFF7C1FF144B8DF803401868019028
:10A4E0000DF10300FCF7A2FD104901A8FFF799FF49
:10A4F0000446B0FA80F0400938709DF80300FCF77C
:10A50000B9FD3CB90A4B34701C70FFF7B9FF2846FF
:10A51000FFF7A2FF204603B0F0BD0824FAE700BF12
:10A52000653A0020643A002090CC0200696C020079
:10A53000663A0020014B1878704700BF653A00204A
:10A5400007B508496846FDF7A2FA019B13B903B0A5
:10A550005DF804FBD3E9002090476846FDF7A1FAB7
:10A56000F3E700BFA0CC0200FFF7EABF60DF70474F
:10A5700069DF704761DF704730B5114DADF5017D82
:10A580004FF4FA740DF1020103A8ADF80240FFF791
:10A59000F1FF70B9294601A8FDF779FA029B002B5B
:10A5A000F0D003A8D3E90021904701A8FDF779FA7C
:10A5B000F4E7052801D0FCF749FB0DF5017D30BD1E
:10A5C00034CF0200024B1B780BB1FFF7D5BF7047A9
:10A5D000673A002030B5054685B00C46002900F0EA
:10A5E000B5805B4B0B600C22002101A800F0EDFD53
:10A5F00001238DF8063022688DF80450062301A946
:10A600002020ADF80830FFF7B3FF60B1FDF79AFAEC
:10A61000504B5149024651481B1ADB081B0443F0BA
:10A620000100FCF7C9F90C22002101A800F0CDFDC2
:10A6300001238DF805302268002301A94020ADF8E0
:10A640000630FFF795FF60B1FDF77CFA414B4449B6
:10A65000024642481B1ADB081B0443F00100FCF7CA
:10A66000ABF90C22002101A800F0AFFDF72322680E
:10A670008DF8045001A92320ADF80630FFF778FFCC
:10A6800060B1FDF75FFA334B3649024633481B1A77
:10A69000DB081B0443F00100FCF78EF90C220021BB
:10A6A00001A800F092FD012022688DF8040001A9A4
:10A6B000FFF75EFF60B1FDF745FA264B2A490246D7
:10A6C00026481B1ADB081B0443F00100FCF774F951
:10A6D0000C22002101A800F078FD4FF4B06322683D
:10A6E000019301A9A120FFF743FF60B1FDF72AFA0A
:10A6F000184B1E49024619481B1ADB081B0443F07D
:10A700000100FCF759F90C22002101A800F05DFDC1
:10A710009DF8043022686FF3000301A9A0208DF892
:10A720000430FFF725FF034668B1FDF70BFA094B2C
:10A730000F49024609481B1ADB081B0443F00100BD
:10A74000FCF73AF90023184605B030BD0E23FAE7AE
:10A75000D82A00209CC20200B8CC02002CC2020001
:10A76000FECC02004ACD020091CD0200DDCD0200F8
:10A770002ECE020073B505460668FFF7F7FE2B687C
:10A78000B34204461DD91A481A4B1B491B1ADB0851
:10A790001B0443F002000190FCF70AF92B681749EB
:10A7A00001983246FCF711F94FF080532A68D3F82C
:10A7B0000C31134901989B0203F100539A1AFCF7DC
:10A7C000FBF82CB90F4B01221A70204602B070BD65
:10A7D0002046FDF7B7F9074B0B49024604481B1A00
:10A7E000DB081B0443F00100FCF7E6F8EDE700BFCF
:10A7F0002CC202009CC2020081CE0200B0CE020038
:10A80000E1CE0200673A00200BCF02004BDF704719
:10A810001FB50D4C01A8FFF7F9FF70B9214602A83A
:10A82000FDF735F9039B002BF4D00198D3E9002103
:10A83000904702A8FDF735F9F4E7052801D0FCF7A9
:10A8400005FA04B010BD00BF4CCF020030B591EA4C
:10A85000030F00F18480841A71EB030C05D21219E6
:10A8600053EB0C03001B71EB0C0140F2000CCFF614
:10A87000E07C1CEA430F54D0BCEB410F61D90C0DB6
:10A88000A4EB135E31EA0C0141F4801133EA0C03AE
:10A8900043F48013DEF1200C2AD303FA0CF540199F
:10A8A00041F1000122FA0EF5401923FA0EF5694133
:10A8B00012FA0CF2CD0208D349085FEA30005FEAD1
:10A8C000320228BF42F001020134013C5FEA500C21
:10A8D00072F1004250F1000051EB04514FF40013AB
:10A8E00013EB410F38BF30BD090D0905002030BD05
:10A8F000BEF1200EBEF1200F1ED223FA0EF5401934
:10A9000041F10001CEF1200C124218BF012203FADE
:10A910000CF52A43CEE711EA5C0F04BF00200021AA
:10A9200030BD1CEA410F04BF01F00041002030BDE2
:10A9300001F00041002030BD21F4801101EB0451F1
:10A9400030BD004218BF41F00101BCEB410F08BF10
:10A9500030BD4FF0FE4141F47801002030BD83F05E
:10A960000043841A71EB030E07D28EF0004E001BD9
:10A9700071EB0E01121953EB0E0340F2000CCFF6EF
:10A98000E07C1CEA430FC6D0BCEB410F72D90C0D22
:10A99000A4EB135EC90241EA5051C00241F00041EC
:10A9A000DB0243EA5253D20243F00043DEF1200CB3
:10A9B00041D312FA0CF522FA0EF203FA0CF542EA30
:10A9C000050218BF42F0010223FA0EF3801A9941E2
:10A9D000E30AC4F30A0411F0404F03D418D0013C39
:10A9E00040004941013C23D44205C00A40EA41509D
:10A9F000C90A51EAC3715FEA500C72F1004250F18A
:10AA0000000051EB045130BD01002FD00020203C4C
:10AA10000029F9D0B1FA81FCDCF1200E11FA0CF119
:10AA200030FA0EF510FA0CF02943A4EB0C04D9E728
:10AA30000020D90730BDAEF1200EBEF1200F0DD29F
:10AA4000CEF1200C03FA0CF533FA0EF32A4318BFAB
:10AA500043F00103C01A61F10001B9E721F00041A0
:10AA6000C00A40EA4150C90A01EB045130BD002040
:10AA7000002130BD004218BF41F00101BCEB410F85
:10AA80007FF467AFBCEB430F3FF463AF30BD00BF53
:10AA900083F00043FFF7DABEF0B540F2FF7681EABB
:10AAA000030C16EA115E1EBFB64516EA1355B542F1
:10AAB0005AD021EA465141F48011A1FB024723EA12
:10AAC000465343F48013AE44A0FB03650CF0004CE6
:10AAD00036197D41A1FB034747F10003A0FB021794
:10AAE000F619654153F10003094218BF46F001060B
:10AAF00040F2FE74B3F5007F13D2AEF5806EA6452A
:10AB00002BD24CEA0331280341EA155140EA165092
:10AB10003203450872F1004250F1000051EB0E5132
:10AB2000F0BDAEF2FF3EA64517D24CEAC321E802C3
:10AB300041EA555140EA5650F202450872F100428E
:10AB400050F1000051EB0E51F0BD0CF0004141F00E
:10AB5000FE4141F470010020F0BD1EEA0E0FF4D555
:10AB60000CF000410020F0BD16EA115F04BF01F0B7
:10AB700000410020004218BF41F0010116EA135FB6
:10AB800004BF03F000430022124218BF43F0010348
:10AB900006EA1354B44218BF9EEA060F03D00CF025
:10ABA00000410020F0BD21F0004123F00043B1EB53
:10ABB000065F06D8B3EB065F03D8002918BF002B49
:10ABC000C3D140F20001C7F6F8710020F0BD00BF0C
:10ABD0002DE9F04391EA030E0EF0004E40F200071B
:10ABE000CFF6E07717EA41051EBF95EA070F17EA8F
:10ABF000430595EA070F00F0A1807F0D17EA135671
:10AC000023EA475343F4801317EA115521EA4751C9
:10AC100041F48011AD1B05F2FD354FEAD31C1CF148
:10AC2000010C4FF00047B7FBFCF77F01A2FB079C2C
:10AC30000024E3FB07C4DCF1000CD9F100097CF12E
:10AC4000000CA0FB07620020E1FB072000275FEA61
:10AC5000C628E0FB0987760D46EAC226520DF61992
:10AC600000277A41E0FB0C625FEAC823E2FB093768
:10AC70005FEA585848EAC628760D18EB0708002105
:10AC80004E41E2FB0C8602EBC020DA02E6FB092112
:10AC90005B0D43EAC8235FEA58585B18002758EB5E
:10ACA0000708E6FB0C38D102E8FB0917520D42EA0F
:10ACB000C3225B0DD21900277B41E8FB0C2308EB74
:10ACC000C6265FEAC128E3FB0987490D41EAC22194
:10ACD000520DC91942F10002E3FB0C12470019EBB7
:10ACE00008095CEB010C72EB040453EBC62047EB44
:10ACF00056530026B3F5000F7641AD190236D6F152
:10AD0000200910FA09F4F04013FA09F21043F34055
:10AD1000E40F001943F10003B3F5001F24BF5B08E3
:10AD2000013540F2FE77BD4204D24EEA0551194486
:10AD3000BDE8F0832D4224D5714626E0004218BFBD
:10AD400041F00101124218BF43F00103B7EB410F7C
:10AD50002CBFB7EB430F1BE0B7EB410F04BFB7EBC2
:10AD6000430F15E017EA410F04BF17EA430F0FE046
:10AD700017EA410FE0D017EA430F02D0B7EB430FB9
:10AD8000DAD04EF0FE4141F470010020BDE8F083BE
:10AD900040F20001C7F6F871F7E700BF0B0D40F273
:10ADA0001E42D21A09DBCB0243EA505040F0004069
:10ADB000202A28BF2022D0407047490060EB0000C5
:10ADC000704700BF80B110F0004248BFD0F10000D2
:10ADD000120D02F21D42B0FA80F18840521AC30AE5
:10ADE000400503EB0251704701007047C0F3C751A3
:10ADF00091B142004FEA40704FEAD2014FEA31016F
:10AE000001F16051B2F17F4F38BF704701F16051DD
:10AE100018BF41F40021704710F000410020704736
:10AE200001F000428B1AA3F16051B1F5801F0ADBDB
:10AE3000B1F17F6F09D242EAC102C10071F1004154
:10AE400042EB507070471046704701285B4113F584
:10AE5000001F04D842F0FE4040F400007047C900D3
:10AE600041EA507040EA020040F4800040F0804027
:10AE7000704700BF10EE100A4FEA4000B0F17F4F5C
:10AE80000CBF01200020704710EE100A4100002086
:10AE9000B1F17F4F18BF50EB0000704710EE100A61
:10AEA00000F00040704700BFB0EEC00A704700BF1E
:10AEB00000B510EE100A00F003F800EE100A00BD15
:10AEC0004FF07F43B3EB400F22D9410008BF7047DA
:10AED00003EA4002120E7F3A14DB172AA8BF70471C
:10AEE0004FF6FF73C0F27F03D340184220EA0300FD
:10AEF00018BF10F0004F08BF70474FF40001D14059
:10AF00004018704710F0004F0CBF002002487047F7
:10AF100018BF024870470000000080BF0000C07FDB
:10AF200000B5014610EE100A00F003F800EE100A1A
:10AF300000BD4FF07F43B3EB400F98BF704713EA5B
:10AF4000400207D0120E7E3A0A6020EA530040F019
:10AF50007C5070470A6000F00040704700B5014621
:10AF600010EE100A00F003F800EE100A00BD4FF0DA
:10AF70007F43B3EB400F98BF704713EA400204BF12
:10AF800000F00040704711EB1262DCBF00F000409F
:10AF90007047FF2A3CBF00EBC150704740004FEAAA
:10AFA000330070477F2805D8034B185C034B5B5C6C
:10AFB000184070470020704764CF0200E4CF0200C1
:10AFC000A0F16103192B98BF20387047A0F141030D
:10AFD000192B98BF203070477F2805D8034B185C89
:10AFE000034B5B5C184070470020704764CF020041
:10AFF000E4CF0200A0F16103192B98BF20387047FD
:10B00000A0F14103192B98BF203070477F299ABFC8
:10B01000017001206FF02E0070475AB10A787F2A24
:10B020000AD800B10260002119605960501A18BF97
:10B0300001207047002070476FF02E00704700001D
:10B04000002816DB002817DD0022B7EE000A0C4BA3
:10B0500010F0010F1CBFD3ED007A20EE270A40103C
:10B0600004330028F4DC4AB1F7EE007A87EE800A58
:10B07000704740420122E8E7B7EE000A704700BF80
:10B08000BCD1020038B504460846A26842B1236824
:10B0900061685D1C8D4208BF00208B4208D2D054ED
:10B0A000E3682BB121686268914201D2214698473A
:10B0B00023680133236038BD70B54C1E09D4164691
:10B0C000C5B229463046FFF7DDFF013CB4F1FF3F32
:10B0D000F7D170BD10F0100F08D108B510F4007F43
:10B0E00014BF30202020FFF7E7FF08BD704700287D
:10B0F000B8BF40427047000008B5034B5B689B68CF
:10B100001B68984708BD00BF142B002008B5092113
:10B11000FFF7F2FF08BD000000B5FBF759F9024B3D
:10B1200018445DF804FB00BF080000000EB400B531
:10B1300086B007AA52F8041B0592039000230493DB
:10B140006FF00043029301A800F0A2F806B05DF88A
:10B1500004EB03B07047037853B159B1014403467F
:10B1600013F8012F12B18B42FAD10B46181A70470F
:10B170000346FBE70346F9E7844640EA010313F080
:10B18000030F18D18446202A0BD32DE9F007B1E82C
:10B19000F807A0E8F807A2F12002202AF7D2BDE8BC
:10B1A000F007042A07D351F8043B40F8043BA2F10E
:10B1B0000402042AF7D2002A05D011F8013B00F856
:10B1C000013B013AF9D1604670478446002A2DD0F0
:10B1D00010F0030F04D000F8011B013A26D0F7E766
:10B1E000C9B241EA012141EA0141202A12D3A2F168
:10B1F00020022DE9F0030B460C460D460E460F4685
:10B2000088468946A0E8FA03203AFBD2BDE8F0035D
:10B2100020320BD0042A05D340F8041B043A05D091
:10B22000042AF9D200F8011B013AFBD160467047AD
:10B2300000F1010110F0030F11D010F8012B002ACA
:10B2400023D010F0030F0AD010F8012B002A1CD0D5
:10B2500010F0030F03D010F8012B002A15D02DE9B0
:10B2600070004FF001324FF0803350F8044BA4EBE4
:10B27000020525EA04051D4000D1F6E7A0F104000F
:10B2800070BC10F8012B002AFBD1A0EB0100704725
:10B290002DE9F04F2DED048B89B0834603920023F6
:10B2A00003600D4615F8011B002900F0AE86DFEDA6
:10B2B000A48A00F09CBE002607E05E2866D146F412
:10B2C000805601E046F0400615462A4612F8010B6A
:10B2D0003028F2D81F2838D9A0F12003102B34D8F9
:10B2E00001A151F823F000BFC5B202004BB3020028
:10B2F0004BB302002DB302004BB302004BB302006C
:10B300004BB3020033B302004BB302004BB3020055
:10B310004BB3020039B302004BB302003FB302004B
:10B320004BB302004BB3020045B3020046F0800667
:10B33000CAE746F40046C7E746F02006C4E746F0F1
:10B340001006C1E746F40076BEE72A281ED1039B0B
:10B35000191D03911F68002FBCBF7F4246F01006E5
:10B360001078AA1C27EAE7752E2824D00027742815
:10B3700045D07A2843D06C2800F0C2804C2800F0D9
:10B38000C580682800F0D38091463BE0A0F13003EF
:10B39000DBB2092B88BF0027E4D8002707EB87071B
:10B3A000303800EB470712F8010BA0F13003DBB295
:10B3B000092BF3D9D6E710782A280AD1039B191D47
:10B3C00003911F6850780232002FD0DB46F480765C
:10B3D000CDE70132A0F13003DBB2092B88BF002793
:10B3E000F4D8002707EB8707303800EB470712F83F
:10B3F000010BA0F13003DBB2092BF3D9E4E791464E
:10B4000019F8010B782800F28480DFE810F01006AC
:10B41000820082008200820082008200820082001C
:10B42000820082008200820082008200820082000C
:10B4300082008200820082008200820082008200FC
:10B4400082008200820082008200820082008200EC
:10B450008200820082008200A300820082008200BB
:10B4600082008200820082008200820082008200CC
:10B4700082008200820082008200820082008200BC
:10B4800082008200820082008200820082008200AC
:10B490008200820082008200C401E101E601820094
:10B4A000820082008200820082008200820082008C
:10B4B00082008200820082008200820082001E01DF
:10B4C000820082008200820082008200820082006C
:10B4D00082008200A9005301C601E301E801820055
:10B4E00053018200820082008200B9004101040100
:10B4F00082008200CE0082004C0182008200200186
:10B50000914619F8010B46F001067BE746F001066B
:10B5100091460C4B1C68002C00F0658503AB019331
:10B5200000972B4632465946A04700F05CBD107884
:10B53000682809D002F1010946F0040662E700BF5D
:10B540000000C842683A002046F0080602F10209ED
:10B55000507857E725215846FFF794FD00F043BD8A
:10B56000039B1A1D03921C78013D5A46294630461A
:10B57000FFF7B0FD21465846FFF784FDB0463AE09C
:10B5800016F0080F08D0DBF80020039B191D03916B
:10B590001B681A7000F027BD039B1A1D03921B68DD
:10B5A000DBF800201A6000F01EBD039B1A1D0392F9
:10B5B0001C688C4B002C08BF1C4626F4007816F43F
:10B5C000807F23D039462046FFF7C5FD0646AD1BD8
:10B5D0005A4629464046FFF77DFD06F1FF3A56B12F
:10B5E0002746344417F8011B5846FFF74BFDBC4271
:10B5F000F8D14FF0FF3A18F0100F00F0F4845A46DB
:10B6000029462020FFF758FD00F0EDBC2046FFF74B
:10B610000FFE0646DBE7039B1A1D03921B6816F01C
:10B62000800F0CBF0024232446F4807608271A4696
:10B63000002B00F0B48404AB4FF0000806F4005077
:10B64000DFF8A4C1A64600F06ABC46F4005616F026
:10B65000800F1BD043F2780443F25803782818BFB8
:10B660001C4616F4807F01D026F4007616F4804F35
:10B6700032D0039B1A1D03921B6816F0040F1FD0D3
:10B680001BB2002B20DA5B422D242DE00024E8E7DA
:10B6900016F0800F0CBF0024302416F4807FE5D014
:10B6A00026F40076E2E716F4807F07D026F40076D1
:10B6B0000024DBE746F480460024D7E70024D5E7E2
:10B6C00016F0080FDDD0DBB216F0200F61D116F0B6
:10B6D000400F18BF202407E0039B1A1D03921B682C
:10B6E00016F0040F50D09BB216F4807F00F0E68372
:10B6F00026F400765838202800F23B8401A252F844
:10B7000020F000BF2FB6020073BF020073BF02001B
:10B7100073BF020073BF020073BF020073BF020059
:10B7200073BF020073BF020073BF020073BF020049
:10B7300073BF0200E9BE020073BF020073BF0200C4
:10B7400073BF020073BF0200E9BE020073BF0200B4
:10B7500073BF020073BF020073BF020073BF020019
:10B76000C1BE02002FB6020073BF020073BF020009
:10B7700073BF020073BF0200E9BE020073BF020084
:10B7800073BF02002FB6020016F0080FACD0DBB278
:10B79000AAE72B24A8E746F4005646F48066039BEC
:10B7A000073323F0070303F108020392D3E90001F2
:10B7B000FFF736FB08EE100A16F4807F16D0B7B9F3
:10B7C00006F44067B7F5406F14BF002701270EE06D
:10B7D00046F4005646F40066E1E746F4005646F4A7
:10B7E0004066DCE7D4D10200A8D102000627B0EE03
:10B7F000480AFFF73FFB002840F0BB80B0EE480A44
:10B80000FFF742FB8046002840F0CC80B0EE480AAB
:10B81000FFF744FB002840F0CE8018EE103A08EE07
:10B82000103A07A800EE103AFFF77AFB079B03EBEC
:10B830004303CA4A82FB0312DB17C3EBA20307933D
:10B84000B5EE408AF1EE10FA40F0BF8006F4406495
:10B85000B4F5806F0AD0B4F5406F40F06E81079B5D
:10B86000BB4203DA13F1040F80F26781079840426C
:10B87000FFF7E6FB28EE008A8DED028AB5EE408ADE
:10B88000F1EE10FA36D0B0EE480AFFF7F3FA0028CE
:10B8900040F0B180F2EE047AB4EEE78AF1EE10FAED
:10B8A0000FDB079B0133F2EE047A1A4688EE278AF3
:10B8B0000133B4EEE78AF1EE10FAF6DA8DED028A82
:10B8C0000792DDED027AB7EE007AF4EEC77AF1EE78
:10B8D00010FA0FD5079B013BF2EE046A1A4667EE99
:10B8E000A67A013BF4EEC77AF1EE10FAF6D4CDED6C
:10B8F000027A079227B1B4F5406F08BF07F1FF370E
:10B900007842FFF79DFBF6EE007A60EE277A9DED18
:10B91000027A77EE877AB2EE047AF4EEC77AF1EE25
:10B9200010FA80F28180B0EE678A002F00F09180DB
:10B9300006F40863B3F5006F7ED026F4006302932B
:10B940007B1DED1A013D16F4805F00F0F380079A2D
:10B95000834B83FB0213A3EBE27303EB4303D31A82
:10B960000233042B00F2E480DFE803F099DA9699C1
:10B97000DA00B5EEC08AF1EE10FA0CD416F4005FCE
:10B98000784C794B08BF1C4616F0200F08BF0134D5
:10B9900026F4807611E616F4005F744C744B08BFF1
:10B9A0001C46F5E716F4005F724C734B08BF1C464B
:10B9B00026F4807601E646F06006F1EE487A17EE4E
:10B9C000903A2CE7079B0133079307980130FFF764
:10B9D00037FBB4EEC08AF1EE10FAF3DC02E0079B0D
:10B9E000013B07930798FFF72BFBB4EEC08AF1EEFB
:10B9F00010FAF4D42AE7B5EEC08AF1EE10FA0CD4AE
:10BA000016F4005F574C584B08BF1C4616F0200F29
:10BA100008BF013426F48076CFE516F4005F534C5E
:10BA2000534B08BF1C46F5E7079B01330793B2EE63
:10BA3000047A87EE878A78E7092FA8BF0927384656
:10BA4000FFF7FEFA60EE087AFCEEE77A17EE903A1E
:10BA50004BB926F400630293053D16F080073FF4CE
:10BA600072AF47466EE7454AA2FB0312D20802EBCB
:10BA70008202B3EB420F7FF460AF4049A1FB032386
:10BA8000DB08013FE5D0A1FB0302D20802EB8202F2
:10BA9000B3EB420FF2D050E74FF0010808E0F2EEAE
:10BAA000047A27EE888A013A0792013D4FF0020896
:10BAB00027EAE77716F0600F18BF05F1FF35079802
:10BAC000FFF715FB6328C8BF05F1FF35F0EE487A94
:10BAD000BCEEC87A17EE104AB8EE478A37EEC88A2D
